{
  "_format": "hh-sol-artifact-1",
  "contractName": "MessageProxyForSchain",
  "sourceName": "contracts/schain/MessageProxyForSchain.sol",
  "abi": [
    {
      "anonymous": false,
      "inputs": [
        {
          "indexed": false,
          "internalType": "uint256",
          "name": "oldValue",
          "type": "uint256"
        },
        {
          "indexed": false,
          "internalType": "uint256",
          "name": "newValue",
          "type": "uint256"
        }
      ],
      "name": "GasLimitWasChanged",
      "type": "event"
    },
    {
      "anonymous": false,
      "inputs": [
        {
          "indexed": true,
          "internalType": "bytes32",
          "name": "dstChainHash",
          "type": "bytes32"
        },
        {
          "indexed": true,
          "internalType": "uint256",
          "name": "msgCounter",
          "type": "uint256"
        },
        {
          "indexed": true,
          "internalType": "address",
          "name": "srcContract",
          "type": "address"
        },
        {
          "indexed": false,
          "internalType": "address",
          "name": "dstContract",
          "type": "address"
        },
        {
          "indexed": false,
          "internalType": "bytes",
          "name": "data",
          "type": "bytes"
        }
      ],
      "name": "OutgoingMessage",
      "type": "event"
    },
    {
      "anonymous": false,
      "inputs": [
        {
          "indexed": true,
          "internalType": "uint256",
          "name": "msgCounter",
          "type": "uint256"
        },
        {
          "indexed": false,
          "internalType": "bytes",
          "name": "message",
          "type": "bytes"
        }
      ],
      "name": "PostMessageError",
      "type": "event"
    },
    {
      "anonymous": false,
      "inputs": [
        {
          "indexed": true,
          "internalType": "bytes32",
          "name": "role",
          "type": "bytes32"
        },
        {
          "indexed": true,
          "internalType": "bytes32",
          "name": "previousAdminRole",
          "type": "bytes32"
        },
        {
          "indexed": true,
          "internalType": "bytes32",
          "name": "newAdminRole",
          "type": "bytes32"
        }
      ],
      "name": "RoleAdminChanged",
      "type": "event"
    },
    {
      "anonymous": false,
      "inputs": [
        {
          "indexed": true,
          "internalType": "bytes32",
          "name": "role",
          "type": "bytes32"
        },
        {
          "indexed": true,
          "internalType": "address",
          "name": "account",
          "type": "address"
        },
        {
          "indexed": true,
          "internalType": "address",
          "name": "sender",
          "type": "address"
        }
      ],
      "name": "RoleGranted",
      "type": "event"
    },
    {
      "anonymous": false,
      "inputs": [
        {
          "indexed": true,
          "internalType": "bytes32",
          "name": "role",
          "type": "bytes32"
        },
        {
          "indexed": true,
          "internalType": "address",
          "name": "account",
          "type": "address"
        },
        {
          "indexed": true,
          "internalType": "address",
          "name": "sender",
          "type": "address"
        }
      ],
      "name": "RoleRevoked",
      "type": "event"
    },
    {
      "inputs": [],
      "name": "CHAIN_CONNECTOR_ROLE",
      "outputs": [
        {
          "internalType": "bytes32",
          "name": "",
          "type": "bytes32"
        }
      ],
      "stateMutability": "view",
      "type": "function"
    },
    {
      "inputs": [],
      "name": "CONSTANT_SETTER_ROLE",
      "outputs": [
        {
          "internalType": "bytes32",
          "name": "",
          "type": "bytes32"
        }
      ],
      "stateMutability": "view",
      "type": "function"
    },
    {
      "inputs": [],
      "name": "DEFAULT_ADMIN_ROLE",
      "outputs": [
        {
          "internalType": "bytes32",
          "name": "",
          "type": "bytes32"
        }
      ],
      "stateMutability": "view",
      "type": "function"
    },
    {
      "inputs": [],
      "name": "EXTRA_CONTRACT_REGISTRAR_ROLE",
      "outputs": [
        {
          "internalType": "bytes32",
          "name": "",
          "type": "bytes32"
        }
      ],
      "stateMutability": "view",
      "type": "function"
    },
    {
      "inputs": [],
      "name": "MAINNET_HASH",
      "outputs": [
        {
          "internalType": "bytes32",
          "name": "",
          "type": "bytes32"
        }
      ],
      "stateMutability": "view",
      "type": "function"
    },
    {
      "inputs": [],
      "name": "MESSAGES_LENGTH",
      "outputs": [
        {
          "internalType": "uint256",
          "name": "",
          "type": "uint256"
        }
      ],
      "stateMutability": "view",
      "type": "function"
    },
    {
      "inputs": [
        {
          "internalType": "string",
          "name": "chainName",
          "type": "string"
        }
      ],
      "name": "addConnectedChain",
      "outputs": [],
      "stateMutability": "nonpayable",
      "type": "function"
    },
    {
      "inputs": [
        {
          "internalType": "bytes32",
          "name": "",
          "type": "bytes32"
        }
      ],
      "name": "connectedChains",
      "outputs": [
        {
          "internalType": "uint256",
          "name": "incomingMessageCounter",
          "type": "uint256"
        },
        {
          "internalType": "uint256",
          "name": "outgoingMessageCounter",
          "type": "uint256"
        },
        {
          "internalType": "bool",
          "name": "inited",
          "type": "bool"
        }
      ],
      "stateMutability": "view",
      "type": "function"
    },
    {
      "inputs": [],
      "name": "gasLimit",
      "outputs": [
        {
          "internalType": "uint256",
          "name": "",
          "type": "uint256"
        }
      ],
      "stateMutability": "view",
      "type": "function"
    },
    {
      "inputs": [
        {
          "internalType": "string",
          "name": "fromSchainName",
          "type": "string"
        }
      ],
      "name": "getIncomingMessagesCounter",
      "outputs": [
        {
          "internalType": "uint256",
          "name": "",
          "type": "uint256"
        }
      ],
      "stateMutability": "view",
      "type": "function"
    },
    {
      "inputs": [
        {
          "internalType": "string",
          "name": "targetSchainName",
          "type": "string"
        }
      ],
      "name": "getOutgoingMessagesCounter",
      "outputs": [
        {
          "internalType": "uint256",
          "name": "",
          "type": "uint256"
        }
      ],
      "stateMutability": "view",
      "type": "function"
    },
    {
      "inputs": [
        {
          "internalType": "bytes32",
          "name": "role",
          "type": "bytes32"
        }
      ],
      "name": "getRoleAdmin",
      "outputs": [
        {
          "internalType": "bytes32",
          "name": "",
          "type": "bytes32"
        }
      ],
      "stateMutability": "view",
      "type": "function"
    },
    {
      "inputs": [
        {
          "internalType": "bytes32",
          "name": "role",
          "type": "bytes32"
        },
        {
          "internalType": "uint256",
          "name": "index",
          "type": "uint256"
        }
      ],
      "name": "getRoleMember",
      "outputs": [
        {
          "internalType": "address",
          "name": "",
          "type": "address"
        }
      ],
      "stateMutability": "view",
      "type": "function"
    },
    {
      "inputs": [
        {
          "internalType": "bytes32",
          "name": "role",
          "type": "bytes32"
        }
      ],
      "name": "getRoleMemberCount",
      "outputs": [
        {
          "internalType": "uint256",
          "name": "",
          "type": "uint256"
        }
      ],
      "stateMutability": "view",
      "type": "function"
    },
    {
      "inputs": [
        {
          "internalType": "bytes32",
          "name": "role",
          "type": "bytes32"
        },
        {
          "internalType": "address",
          "name": "account",
          "type": "address"
        }
      ],
      "name": "grantRole",
      "outputs": [],
      "stateMutability": "nonpayable",
      "type": "function"
    },
    {
      "inputs": [
        {
          "internalType": "bytes32",
          "name": "role",
          "type": "bytes32"
        },
        {
          "internalType": "address",
          "name": "account",
          "type": "address"
        }
      ],
      "name": "hasRole",
      "outputs": [
        {
          "internalType": "bool",
          "name": "",
          "type": "bool"
        }
      ],
      "stateMutability": "view",
      "type": "function"
    },
    {
      "inputs": [
        {
          "internalType": "contract KeyStorage",
          "name": "blsKeyStorage",
          "type": "address"
        },
        {
          "internalType": "string",
          "name": "schainName",
          "type": "string"
        }
      ],
      "name": "initialize",
      "outputs": [],
      "stateMutability": "nonpayable",
      "type": "function"
    },
    {
      "inputs": [
        {
          "internalType": "uint256",
          "name": "newGasLimit",
          "type": "uint256"
        }
      ],
      "name": "initializeMessageProxy",
      "outputs": [],
      "stateMutability": "nonpayable",
      "type": "function"
    },
    {
      "inputs": [
        {
          "internalType": "string",
          "name": "schainName",
          "type": "string"
        }
      ],
      "name": "isConnectedChain",
      "outputs": [
        {
          "internalType": "bool",
          "name": "",
          "type": "bool"
        }
      ],
      "stateMutability": "view",
      "type": "function"
    },
    {
      "inputs": [
        {
          "internalType": "string",
          "name": "schainName",
          "type": "string"
        },
        {
          "internalType": "address",
          "name": "contractAddress",
          "type": "address"
        }
      ],
      "name": "isContractRegistered",
      "outputs": [
        {
          "internalType": "bool",
          "name": "",
          "type": "bool"
        }
      ],
      "stateMutability": "view",
      "type": "function"
    },
    {
      "inputs": [],
      "name": "keyStorage",
      "outputs": [
        {
          "internalType": "contract KeyStorage",
          "name": "",
          "type": "address"
        }
      ],
      "stateMutability": "view",
      "type": "function"
    },
    {
      "inputs": [
        {
          "internalType": "string",
          "name": "fromChainName",
          "type": "string"
        },
        {
          "internalType": "uint256",
          "name": "startingCounter",
          "type": "uint256"
        },
        {
          "components": [
            {
              "internalType": "address",
              "name": "sender",
              "type": "address"
            },
            {
              "internalType": "address",
              "name": "destinationContract",
              "type": "address"
            },
            {
              "internalType": "bytes",
              "name": "data",
              "type": "bytes"
            }
          ],
          "internalType": "struct MessageProxy.Message[]",
          "name": "messages",
          "type": "tuple[]"
        },
        {
          "components": [
            {
              "internalType": "uint256[2]",
              "name": "blsSignature",
              "type": "uint256[2]"
            },
            {
              "internalType": "uint256",
              "name": "hashA",
              "type": "uint256"
            },
            {
              "internalType": "uint256",
              "name": "hashB",
              "type": "uint256"
            },
            {
              "internalType": "uint256",
              "name": "counter",
              "type": "uint256"
            }
          ],
          "internalType": "struct MessageProxy.Signature",
          "name": "signature",
          "type": "tuple"
        }
      ],
      "name": "postIncomingMessages",
      "outputs": [],
      "stateMutability": "nonpayable",
      "type": "function"
    },
    {
      "inputs": [
        {
          "internalType": "bytes32",
          "name": "targetChainHash",
          "type": "bytes32"
        },
        {
          "internalType": "address",
          "name": "targetContract",
          "type": "address"
        },
        {
          "internalType": "bytes",
          "name": "data",
          "type": "bytes"
        }
      ],
      "name": "postOutgoingMessage",
      "outputs": [],
      "stateMutability": "nonpayable",
      "type": "function"
    },
    {
      "inputs": [
        {
          "internalType": "string",
          "name": "chainName",
          "type": "string"
        },
        {
          "internalType": "address",
          "name": "extraContract",
          "type": "address"
        }
      ],
      "name": "registerExtraContract",
      "outputs": [],
      "stateMutability": "nonpayable",
      "type": "function"
    },
    {
      "inputs": [
        {
          "internalType": "address",
          "name": "extraContract",
          "type": "address"
        }
      ],
      "name": "registerExtraContractForAll",
      "outputs": [],
      "stateMutability": "nonpayable",
      "type": "function"
    },
    {
      "inputs": [
        {
          "internalType": "bytes32",
          "name": "",
          "type": "bytes32"
        },
        {
          "internalType": "address",
          "name": "",
          "type": "address"
        }
      ],
      "name": "registryContracts",
      "outputs": [
        {
          "internalType": "bool",
          "name": "",
          "type": "bool"
        }
      ],
      "stateMutability": "view",
      "type": "function"
    },
    {
      "inputs": [
        {
          "internalType": "string",
          "name": "chainName",
          "type": "string"
        }
      ],
      "name": "removeConnectedChain",
      "outputs": [],
      "stateMutability": "nonpayable",
      "type": "function"
    },
    {
      "inputs": [
        {
          "internalType": "string",
          "name": "chainName",
          "type": "string"
        },
        {
          "internalType": "address",
          "name": "extraContract",
          "type": "address"
        }
      ],
      "name": "removeExtraContract",
      "outputs": [],
      "stateMutability": "nonpayable",
      "type": "function"
    },
    {
      "inputs": [
        {
          "internalType": "address",
          "name": "extraContract",
          "type": "address"
        }
      ],
      "name": "removeExtraContractForAll",
      "outputs": [],
      "stateMutability": "nonpayable",
      "type": "function"
    },
    {
      "inputs": [
        {
          "internalType": "bytes32",
          "name": "role",
          "type": "bytes32"
        },
        {
          "internalType": "address",
          "name": "account",
          "type": "address"
        }
      ],
      "name": "renounceRole",
      "outputs": [],
      "stateMutability": "nonpayable",
      "type": "function"
    },
    {
      "inputs": [
        {
          "internalType": "bytes32",
          "name": "role",
          "type": "bytes32"
        },
        {
          "internalType": "address",
          "name": "account",
          "type": "address"
        }
      ],
      "name": "revokeRole",
      "outputs": [],
      "stateMutability": "nonpayable",
      "type": "function"
    },
    {
      "inputs": [],
      "name": "schainHash",
      "outputs": [
        {
          "internalType": "bytes32",
          "name": "",
          "type": "bytes32"
        }
      ],
      "stateMutability": "view",
      "type": "function"
    },
    {
      "inputs": [
        {
          "internalType": "uint256",
          "name": "newGasLimit",
          "type": "uint256"
        }
      ],
      "name": "setNewGasLimit",
      "outputs": [],
      "stateMutability": "nonpayable",
      "type": "function"
    },
    {
      "inputs": [
        {
          "internalType": "bytes4",
          "name": "interfaceId",
          "type": "bytes4"
        }
      ],
      "name": "supportsInterface",
      "outputs": [
        {
          "internalType": "bool",
          "name": "",
          "type": "bool"
        }
      ],
      "stateMutability": "view",
      "type": "function"
    },
    {
      "inputs": [
        {
          "components": [
            {
              "internalType": "bytes32",
              "name": "dstChain",
              "type": "bytes32"
            },
            {
              "internalType": "uint256",
              "name": "msgCounter",
              "type": "uint256"
            },
            {
              "internalType": "address",
              "name": "srcContract",
              "type": "address"
            },
            {
              "internalType": "address",
              "name": "dstContract",
              "type": "address"
            },
            {
              "internalType": "bytes",
              "name": "data",
              "type": "bytes"
            }
          ],
          "internalType": "struct MessageProxyForSchain.OutgoingMessageData",
          "name": "message",
          "type": "tuple"
        }
      ],
      "name": "verifyOutgoingMessageData",
      "outputs": [
        {
          "internalType": "bool",
          "name": "isValidMessage",
          "type": "bool"
        }
      ],
      "stateMutability": "view",
      "type": "function"
    }
  ],
  "bytecode": "0x608060405234801561001057600080fd5b5061379f806100206000396000f3fe608060405234801561001057600080fd5b50600436106102115760003560e01c80639010d07c11610125578063cab010c9116100ad578063f2f636051161007c578063f2f636051461050b578063f399e22e1461051e578063f68016b714610531578063f79f79541461053a578063f8c88a161461054d57600080fd5b8063cab010c914610483578063d547741f14610496578063e356a6f9146104a9578063e6ab8403146104bc57600080fd5b8063a217fddf116100f4578063a217fddf14610426578063a8bb1b7d1461042e578063bbc4e8c214610441578063bdb40cb014610468578063ca15c8731461047057600080fd5b80639010d07c146103c257806391d14854146103ed5780639448920214610400578063999ab9aa1461041357600080fd5b80633cdd2cc3116101a857806367ec60201161017757806367ec6020146103485780636e2f37b01461035b57806377fe0f311461036e5780637aa38a7c146103815780637c5ad80c1461039457600080fd5b80633cdd2cc3146102fa5780634d2038591461030d578063523c8ab614610320578063603e5d131461033557600080fd5b80632f2ff15d116101e45780632f2ff15d146102b657806336568abe146102cb5780633b597ffe146102de5780633b690b6b146102f157600080fd5b806301ffc9a71461021657806313c522601461023e578063248a9ca31461026157806328c5e18214610284575b600080fd5b610229610224366004612d94565b610560565b60405190151581526020015b60405180910390f35b61025360008051602061374a83398151915281565b604051908152602001610235565b61025361026f366004612cd1565b60009081526065602052604090206001015490565b6102536040516613585a5b9b995d60ca1b60208201526027016040516020818303038152906040528051906020012081565b6102c96102c4366004612cea565b61058b565b005b6102c96102d9366004612cea565b6105b2565b6102c96102ec366004612cd1565b6105d4565b61025360cd5481565b6102c9610308366004612f5e565b61069f565b6102c961031b366004612c97565b61078d565b6102536000805160206136ea83398151915281565b6102c9610343366004612ea4565b61088f565b610253610356366004612e0d565b610ac3565b6102c9610369366004612cd1565b610b3c565b61025361037c366004612e0d565b610c56565b61022961038f36600461301b565b610cfc565b6102296103a2366004612cea565b60ca60209081526000928352604080842090915290825290205460ff1681565b6103d56103d0366004612d72565b610d36565b6040516001600160a01b039091168152602001610235565b6102296103fb366004612cea565b610d55565b6102c961040e366004612d1a565b610d80565b610229610421366004612f5e565b610e36565b610253600081565b6102c961043c366004612c97565b610e7f565b6102537f96e3fc3be15159903e053027cff8a23f39a990e0194abcd8ac1cf1b355b8b93c81565b610253600a81565b61025361047e366004612cd1565b610f56565b6102c9610491366004612f92565b610f6d565b6102c96104a4366004612cea565b610ff8565b6102296104b7366004612e4e565b611002565b6104ee6104ca366004612cd1565b60c96020526000908152604090208054600182015460029092015490919060ff1683565b604080519384526020840192909252151590820152606001610235565b6102c9610519366004612e0d565b611090565b6102c961052c366004612dbe565b611118565b61025360cb5481565b60cc546103d5906001600160a01b031681565b6102c961055b366004612f92565b61125f565b60006001600160e01b03198216635a05180f60e01b14806105855750610585826112ea565b92915050565b610595828261131f565b60008281526097602052604090206105ad9082611345565b505050565b6105bc828261135a565b60008281526097602052604090206105ad90826113d4565b6105fe7f96e3fc3be15159903e053027cff8a23f39a990e0194abcd8ac1cf1b355b8b93c33610d55565b61065e5760405162461bcd60e51b815260206004820152602660248201527f4e6f7420656e6f756768207065726d697373696f6e7320746f2073657420636f6044820152651b9cdd185b9d60d21b60648201526084015b60405180910390fd5b60cb5460408051918252602082018390527f8abddb75fd50f7583079c0b550ec7a54fa3fd8d5dd1d2dfdc473f7ce27e3b9ac910160405180910390a160cb55565b6106b760008051602061374a83398151915233610d55565b6106d35760405162461bcd60e51b815260040161065590613285565b6000816040516020016106e69190613176565b60405160208183030381529060405280519060200120905060405160200161071b906613585a5b9b995d60ca1b815260070190565b604051602081830303815290604052805190602001208114156107805760405162461bcd60e51b815260206004820152601960248201527f4d61696e6e65742063616e6e6f742062652072656d6f766564000000000000006044820152606401610655565b610789826113e9565b5050565b6107a56000805160206136ea83398151915233610d55565b6107c15760405162461bcd60e51b8152600401610655906132ba565b6001600160a01b0381163b6108185760405162461bcd60e51b815260206004820152601f60248201527f476976656e2061646472657373206973206e6f74206120636f6e7472616374006044820152606401610655565b6001600160a01b038116600090815260008051602061372a833981519152602052604090205460ff161561085e5760405162461bcd60e51b8152600401610655906133d9565b6001600160a01b0316600090815260008051602061372a83398151915260205260409020805460ff19166001179055565b600086866040516020016108a4929190613166565b60408051601f198184030181529181528151602092830120600081815260c990935291206002015490915060ff166109195760405162461bcd60e51b815260206004820152601860248201527710da185a5b881a5cc81b9bdd081a5b9a5d1a585b1a5e995960421b6044820152606401610655565b600a83111561095e5760405162461bcd60e51b8152602060048201526011602482015270546f6f206d616e79206d6573736167657360781b6044820152606401610655565b61097161096b85856114cc565b836115d7565b6109bd5760405162461bcd60e51b815260206004820152601960248201527f5369676e6174757265206973206e6f74207665726966696564000000000000006044820152606401610655565b600081815260c960205260409020548514610a405760405162461bcd60e51b815260206004820152603860248201527f5374617274696e6720636f756e746572206973206e6f74207175616c20746f2060448201527f696e636f6d696e67206d65737361676520636f756e74657200000000000000006064820152608401610655565b60005b83811015610a9657610a8382868684818110610a6157610a61613603565b9050602002810190610a739190613463565b610a7e896001613479565b611684565b5080610a8e81613592565b915050610a43565b50600081815260c9602052604081208054859290610ab5908490613479565b909155505050505050505050565b6000808383604051602001610ad9929190613166565b60408051601f198184030181529181528151602092830120600081815260c990935291206002015490915060ff16610b235760405162461bcd60e51b815260040161065590613395565b600090815260c960205260409020600101549392505050565b600054610100900460ff1680610b55575060005460ff16155b610b715760405162461bcd60e51b815260040161065590613303565b600054610100900460ff16158015610b93576000805461ffff19166101011790555b610b9b611809565b610ba6600033611895565b610bbe60008051602061374a83398151915233611895565b610bd66000805160206136ea83398151915233611895565b610c007f96e3fc3be15159903e053027cff8a23f39a990e0194abcd8ac1cf1b355b8b93c33611895565b60cb5460408051918252602082018490527f8abddb75fd50f7583079c0b550ec7a54fa3fd8d5dd1d2dfdc473f7ce27e3b9ac910160405180910390a160cb8290558015610789576000805461ff00191690555050565b6000808383604051602001610c6c929190613166565b60408051601f198184030181529181528151602092830120600081815260c990935291206002015490915060ff16610ce65760405162461bcd60e51b815260206004820152601f60248201527f536f7572636520636861696e206973206e6f7420696e697469616c697a6564006044820152606401610655565b600090815260c960205260409020549392505050565b8051600090815260ce60209081526040808320828501518452909152812054610d248361189f565b811415610d3057600191505b50919050565b6000828152609760205260408120610d4e908361190b565b9392505050565b60009182526065602090815260408084206001600160a01b0393909316845291905290205460ff1690565b610d8b838383611917565b60006040518060a00160405280858152602001600160c9600088815260200190815260200160002060010154610dc191906134c4565b81523360208201526001600160a01b03851660408201526060018390528051909150610dec8261189f565b600082815260ce6020908152604080832060d08084528285208054865291845291842094909455848352905281546001929190610e2a908490613479565b90915550505050505050565b600060c9600083604051602001610e4d9190613176565b60408051601f198184030181529181528151602092830120835290820192909252016000206002015460ff1692915050565b610e976000805160206136ea83398151915233610d55565b610eb35760405162461bcd60e51b8152600401610655906132ba565b6001600160a01b038116600090815260008051602061372a833981519152602052604090205460ff16610f285760405162461bcd60e51b815260206004820181905260248201527f457874726120636f6e7472616374206973206e6f7420726567697374657265646044820152606401610655565b6001600160a01b0316600090815260008051602061372a83398151915260205260409020805460ff19169055565b600081815260976020526040812061058590611a6e565b610f856000805160206136ea83398151915233610d55565b610fa15760405162461bcd60e51b8152600401610655906132ba565b600082604051602001610fb49190613176565b60405160208183030381529060405280519060200120905060cd54811415610fee5760405162461bcd60e51b815260040161065590613351565b6105ad8183611a78565b6105bc8282611bd4565b600060ca6000858560405160200161101b929190613166565b60408051601f19818403018152918152815160209283012083528282019390935290820160009081206001600160a01b0386168252909152205460ff168061108857506001600160a01b038216600090815260008051602061372a833981519152602052604090205460ff165b949350505050565b600082826040516020016110a5929190613166565b60405160208183030381529060405280519060200120905060cd5481141561110f5760405162461bcd60e51b815260206004820152601c60248201527f53636861696e2063616e6e6f7420636f6e6e65637420697473656c66000000006044820152606401610655565b6105ad81611bfa565b600054610100900460ff1680611131575060005460ff16155b61114d5760405162461bcd60e51b815260040161065590613303565b600054610100900460ff1615801561116f576000805461ffff19166101011790555b61117b622dc6c0610b3c565b60cc80546001600160a01b0385166001600160a01b031990911617905560408051606081018252600080825260208083018290526001838501529251919260c9926111d491016613585a5b9b995d60ca1b815260070190565b60408051808303601f19018152918152815160209283012083528282019390935290820160002083518155838201516001820155928201516002909301805460ff1916931515939093179092555161122e91849101613176565b60408051601f19818403018152919052805160209091012060cd5580156105ad576000805461ff0019169055505050565b6112776000805160206136ea83398151915233610d55565b6112935760405162461bcd60e51b8152600401610655906132ba565b6000826040516020016112a69190613176565b60405160208183030381529060405280519060200120905060cd548114156112e05760405162461bcd60e51b815260040161065590613351565b6105ad8183611ce0565b60006001600160e01b03198216637965db0b60e01b148061058557506301ffc9a760e01b6001600160e01b0319831614610585565b60008281526065602052604090206001015461133b8133611d7f565b6105ad8383611de3565b6000610d4e836001600160a01b038416611e69565b6001600160a01b03811633146113ca5760405162461bcd60e51b815260206004820152602f60248201527f416363657373436f6e74726f6c3a2063616e206f6e6c792072656e6f756e636560448201526e103937b632b9903337b91039b2b63360891b6064820152608401610655565b6107898282611eb8565b6000610d4e836001600160a01b038416611f1f565b61140160008051602061374a83398151915233610d55565b61141d5760405162461bcd60e51b815260040161065590613285565b6000816040516020016114309190613176565b60408051601f198184030181529181528151602092830120600081815260c990935291206002015490915060ff166114a55760405162461bcd60e51b815260206004820152601860248201527710da185a5b881a5cc81b9bdd081a5b9a5d1a585b1a5e995960421b6044820152606401610655565b600090815260c9602052604081208181556001810191909155600201805460ff1916905550565b6000606060005b838110156115c757818585838181106114ee576114ee613603565b90506020028101906115009190613463565b61150e906020810190612c97565b60601b6001600160601b03191686868481811061152d5761152d613603565b905060200281019061153f9190613463565b611550906040810190602001612c97565b60601b6001600160601b03191687878581811061156f5761156f613603565b90506020028101906115819190613463565b61158f90604081019061341d565b6040516020016115a395949392919061312c565b604051602081830303815290604052915080806115bf90613592565b9150506114d3565b5080516020909101209392505050565b604080518082018252823581526020808401359082015260cc548251632aa77bd360e11b81528351600094610d4e949388936080808a013594938a01359360608b0135936001600160a01b03169263554ef7a6926004808301939192829003018186803b15801561164757600080fd5b505afa15801561165b573d6000803e3d6000fd5b505050506040513d601f19601f8201168201806040525081019061167f9190612fd8565b612019565b60006116966040840160208501612c97565b6001600160a01b031663884cee5a60cb54868660000160208101906116bb9190612c97565b6116c8604089018961341d565b6040518663ffffffff1660e01b81526004016116e7949392919061322b565b602060405180830381600088803b15801561170157600080fd5b5087f193505050508015611732575060408051601f3d908101601f1916820190925261172f91810190612cb4565b60015b6118025761173e61362f565b806308c379a014156117a0575061175361364b565b8061175e57506117a2565b827f4b7d3908626050c0d998d657e4e6f31cb43ed736bf2b9a1a0192494537ca0e598260405161178e9190613272565b60405180910390a26000915050610d4e565b505b3d8080156117cc576040519150601f19603f3d011682016040523d82523d6000602084013e6117d1565b606091505b50827f4b7d3908626050c0d998d657e4e6f31cb43ed736bf2b9a1a0192494537ca0e598260405161178e9190613272565b9050610d4e565b600054610100900460ff1680611822575060005460ff16155b61183e5760405162461bcd60e51b815260040161065590613303565b600054610100900460ff16158015611860576000805461ffff19166101011790555b6118686121e3565b6118706121e3565b6118786121e3565b6118806121e3565b8015611892576000805461ff00191690555b50565b610595828261224d565b6000808260000151836020015160001b846040015160601b6001600160601b031916856060015160601b6001600160601b03191686608001516040516020016118ec9594939291906130f1565b60408051601f1981840301815291905280516020909101209392505050565b6000610d4e8383612257565b600083815260c9602052604090206002015460ff166119485760405162461bcd60e51b815260040161065590613395565b33600090815260008051602061372a833981519152602052604090205460ff168061198c5750600083815260ca6020908152604080832033845290915290205460ff165b6119e25760405162461bcd60e51b815260206004820152602160248201527f53656e64657220636f6e7472616374206973206e6f74207265676973746572656044820152601960fa1b6064820152608401610655565b336001600160a01b031660c9600085815260200190815260200160002060010154847f803d7f3ca0e5f93fcce39fa29812ed57a95a151594966e17125220132741c6b08585604051611a35929190613207565b60405180910390a4600160c960008581526020019081526020016000206001016000828254611a649190613479565b9091555050505050565b6000610585825490565b6001600160a01b0381163b611acf5760405162461bcd60e51b815260206004820152601f60248201527f476976656e2061646472657373206973206e6f74206120636f6e7472616374006044820152606401610655565b600082815260ca602090815260408083206001600160a01b038516845290915290205460ff1615611b125760405162461bcd60e51b8152600401610655906133d9565b6001600160a01b038116600090815260008051602061372a833981519152602052604090205460ff1615611ba45760405162461bcd60e51b815260206004820152603360248201527f457874726120636f6e747261637420697320616c7265616479207265676973746044820152726572656420666f7220616c6c20636861696e7360681b6064820152608401610655565b600091825260ca602090815260408084206001600160a01b0390931684529190529020805460ff19166001179055565b600082815260656020526040902060010154611bf08133611d7f565b6105ad8383611eb8565b611c1260008051602061374a83398151915233610d55565b611c2e5760405162461bcd60e51b815260040161065590613285565b600081815260c9602052604090206002015460ff1615611c905760405162461bcd60e51b815260206004820152601a60248201527f436861696e20697320616c726561647920636f6e6e65637465640000000000006044820152606401610655565b6040805160608101825260008082526020808301828152600184860181815296845260c9909252939091209151825591519181019190915590516002909101805460ff1916911515919091179055565b600082815260ca602090815260408083206001600160a01b038516845290915290205460ff16611d525760405162461bcd60e51b815260206004820181905260248201527f457874726120636f6e7472616374206973206e6f7420726567697374657265646044820152606401610655565b600091825260ca602090815260408084206001600160a01b0390931684529190529020805460ff19169055565b611d898282610d55565b61078957611da1816001600160a01b03166014612281565b611dac836020612281565b604051602001611dbd929190613192565b60408051601f198184030181529082905262461bcd60e51b825261065591600401613272565b611ded8282610d55565b6107895760008281526065602090815260408083206001600160a01b03851684529091529020805460ff19166001179055611e253390565b6001600160a01b0316816001600160a01b0316837f2f8788117e7eff1d82e926ec794901d17c78024a50270940304540a733656f0d60405160405180910390a45050565b6000818152600183016020526040812054611eb057508154600181810184556000848152602080822090930184905584548482528286019093526040902091909155610585565b506000610585565b611ec28282610d55565b156107895760008281526065602090815260408083206001600160a01b0385168085529252808320805460ff1916905551339285917ff6391f5c32d9c69d2a47ea670b442974b53935d1edc7fd64eb21e047a839171b9190a45050565b60008181526001830160205260408120548015612008576000611f436001836134c4565b8554909150600090611f57906001906134c4565b9050818114611fbc576000866000018281548110611f7757611f77613603565b9060005260206000200154905080876000018481548110611f9a57611f9a613603565b6000918252602080832090910192909255918252600188019052604090208390555b8554869080611fcd57611fcd6135ed565b600190038181906000526020600020016000905590558560010160008681526020019081526020016000206000905560019350505050610585565b6000915050610585565b5092915050565b60006120248761241c565b6120695760405162461bcd60e51b815260206004820152601660248201527514da59db985d1d5c99481a5cc81b9bdd081d985b1a5960521b6044820152606401610655565b61207586868686612452565b612081575060006121d9565b6000612090886020015161253e565b90506120a0886000015182612563565b6120dd5760405162461bcd60e51b815260206004820152600e60248201526d5369676e206e6f7420696e20473160901b6044820152606401610655565b6120e78585612563565b6121245760405162461bcd60e51b815260206004820152600e60248201526d48617368206e6f7420696e20473160901b6044820152606401610655565b600061212e612599565b905061213984612659565b61217c5760405162461bcd60e51b8152602060048201526014602482015273283ab13634b19025b2bc903737ba1034b710239960611b6044820152606401610655565b6121d48960000151838360000151602001518460000151600001518560200151602001518660200151600001518c8c8c60000151602001518d60000151600001518e60200151602001518f602001516000015161266d565b925050505b9695505050505050565b600054610100900460ff16806121fc575060005460ff16155b6122185760405162461bcd60e51b815260040161065590613303565b600054610100900460ff16158015611880576000805461ffff19166101011790558015611892576000805461ff001916905550565b6107898282611de3565b600082600001828154811061226e5761226e613603565b9060005260206000200154905092915050565b606060006122908360026134a5565b61229b906002613479565b6001600160401b038111156122b2576122b2613619565b6040519080825280601f01601f1916602001820160405280156122dc576020820181803683370190505b509050600360fc1b816000815181106122f7576122f7613603565b60200101906001600160f81b031916908160001a905350600f60fb1b8160018151811061232657612326613603565b60200101906001600160f81b031916908160001a905350600061234a8460026134a5565b612355906001613479565b90505b60018111156123cd576f181899199a1a9b1b9c1cb0b131b232b360811b85600f166010811061238957612389613603565b1a60f81b82828151811061239f5761239f613603565b60200101906001600160f81b031916908160001a90535060049490941c936123c68161350b565b9050612358565b508315610d4e5760405162461bcd60e51b815260206004820181905260248201527f537472696e67733a20686578206c656e67746820696e73756666696369656e746044820152606401610655565b600060008051602061370a83398151915282600001511080156105855750506020015160008051602061370a8339815191521190565b6000606484111561246557506000611088565b600061247f60008051602061370a833981519152876135ad565b905060008051602061370a83398151915261249a8683613479565b6124a491906135ad565b9050600060008051602061370a833981519152600360008051602061370a8339815191528460008051602061370a833981519152868709090890506124f8600260008051602061370a833981519152613491565b84108061251657508060008051602061370a83398151915285860914155b806125215750848214155b1561253157600092505050611088565b5060019695505050505050565b600060008051602061370a83398151915261255983826134c4565b61058591906135ad565b600060008051602061370a8339815191528060038186818889090908818061258d5761258d6135d7565b84850914949350505050565b6125a1612b13565b50604080516080810182527f1800deef121f1e76426a00665e5c4479674322d4f75edadd46debd5cd992f6ed8183019081527f198e9393920d483a7260bfb731fb5d25f1aa493335a9e71297e485b7aef312c26060830152815281518083019092527f12c85ea5db8c6deb4aab71808dcb408fe3d1e7690c43d37b4ce6cc0166fa7daa82527f090689d0585ff075ec9e99ad690c3395bc4b313370b38ef355acdadcd122975b60208381019190915281019190915290565b60006105858260000151836020015161273d565b600080612678612b57565b8e8152602081018e9052604081018d9052606081018c9052608081018b905260a081018a905260c0810189905260e0810188905261010081018790526101208101869052610140810185905261016081018490526126d4612b76565b602081610180846008600019fa9250826127275760405162461bcd60e51b815260206004820152601460248201527314185a5c9a5b99c818da1958dac819985a5b195960621b6044820152606401610655565b5115159f9e505050505050505050505050505050565b60006127498383612811565b1561275657506001610585565b600061276183612844565b905060006127f46127d1604080518082018252600080825260209182015281518083019092527f2b149d40ceb8aaae81be18991be06ac3b5b4c5e559dbefa33267e6dc24a138e582527e9713b03af0fed4cd2cafadeed8fdf4a74fa084e52d1852e4a2bd0685c315d29082015290565b6127ee6127e7886127e18a612844565b906128fa565b8590612a0d565b90612a0d565b805190915015801561280857506020810151155b95945050505050565b815160009015801561282557506020830151155b8015612832575081516001145b8015610d4e5750506020015115919050565b604080518082019091526000808252602082015260008051602061370a8339815191526000816020850151855109905060008280612884576128846135d7565b8380612892576128926135d7565b84806128a0576128a06135d7565b60208801516128b06001886134c4565b0987510884806128c2576128c26135d7565b6020880151885108099050604051806040016040528082815260200184806128ec576128ec6135d7565b848508905295945050505050565b6040805180820190915260008082526020820152600060008051602061370a833981519152905060006040518060400160405280838061293c5761293c6135d7565b865188510981526020018380612954576129546135d7565b8660200151886020015109905290508180612971576129716135d7565b828061297f5761297f6135d7565b602083015161298f6001866134c4565b09825108835281806129a3576129a36135d7565b82806129b1576129b16135d7565b60208301518351086129c390846134c4565b83806129d1576129d16135d7565b84806129df576129df6135d7565b602088015188510885806129f5576129f56135d7565b60208a01518a51080908602084015250909392505050565b60408051808201909152600080825260208201528151835160008051602061370a8339815191529111612a5e578080612a4857612a486135d7565b8351612a5490836134c4565b8551088252612a93565b808180612a6d57612a6d6135d7565b8551612a7990846134c4565b855108612a8690836134c4565b612a9091906135ad565b82525b8260200151846020015110612acf578080612ab057612ab06135d7565b6020840151612abf90836134c4565b8560200151086020830152612012565b808180612ade57612ade6135d7565b6020860151612aed90846134c4565b856020015108612afd90836134c4565b612b0791906135ad565b60208301525092915050565b60408051608081018252600091810182815260608201929092529081908152602001612b52604051806040016040528060008152602001600081525090565b905290565b604051806101800160405280600c906020820280368337509192915050565b60405180602001604052806001906020820280368337509192915050565b600082601f830112612ba557600080fd5b81356001600160401b03811115612bbe57612bbe613619565b604051612bd5601f8301601f191660200182613566565b818152846020838601011115612bea57600080fd5b816020850160208301376000918101602001919091529392505050565b60008083601f840112612c1957600080fd5b5081356001600160401b03811115612c3057600080fd5b602083019150836020828501011115612c4857600080fd5b9250929050565b600060408284031215612c6157600080fd5b604051612c6d81613522565b80915082518152602083015160208201525092915050565b600060a08284031215610d3057600080fd5b600060208284031215612ca957600080fd5b8135610d4e816136d4565b600060208284031215612cc657600080fd5b8151610d4e816136d4565b600060208284031215612ce357600080fd5b5035919050565b60008060408385031215612cfd57600080fd5b823591506020830135612d0f816136d4565b809150509250929050565b600080600060608486031215612d2f57600080fd5b833592506020840135612d41816136d4565b915060408401356001600160401b03811115612d5c57600080fd5b612d6886828701612b94565b9150509250925092565b60008060408385031215612d8557600080fd5b50508035926020909101359150565b600060208284031215612da657600080fd5b81356001600160e01b031981168114610d4e57600080fd5b60008060408385031215612dd157600080fd5b8235612ddc816136d4565b915060208301356001600160401b03811115612df757600080fd5b612e0385828601612b94565b9150509250929050565b60008060208385031215612e2057600080fd5b82356001600160401b03811115612e3657600080fd5b612e4285828601612c07565b90969095509350505050565b600080600060408486031215612e6357600080fd5b83356001600160401b03811115612e7957600080fd5b612e8586828701612c07565b9094509250506020840135612e99816136d4565b809150509250925092565b6000806000806000806101008789031215612ebe57600080fd5b86356001600160401b0380821115612ed557600080fd5b612ee18a838b01612c07565b9098509650602089013595506040890135915080821115612f0157600080fd5b818901915089601f830112612f1557600080fd5b813581811115612f2457600080fd5b8a60208260051b8501011115612f3957600080fd5b602083019550809450505050612f528860608901612c85565b90509295509295509295565b600060208284031215612f7057600080fd5b81356001600160401b03811115612f8657600080fd5b61108884828501612b94565b60008060408385031215612fa557600080fd5b82356001600160401b03811115612fbb57600080fd5b612fc785828601612b94565b9250506020830135612d0f816136d4565b600060808284031215612fea57600080fd5b604051612ff681613522565b6130008484612c4f565b815261300f8460408501612c4f565b60208201529392505050565b60006020828403121561302d57600080fd5b81356001600160401b038082111561304457600080fd5b9083019060a0828603121561305857600080fd5b60405161306481613547565b82358152602083013560208201526040830135613080816136d4565b60408201526060830135613093816136d4565b60608201526080830135828111156130aa57600080fd5b6130b687828601612b94565b60808301525095945050505050565b600081518084526130dd8160208601602086016134db565b601f01601f19169290920160200192915050565b8581528460208201528360408201528260608201526000825161311b8160808501602087016134db565b919091016080019695505050505050565b6000865161313e818460208b016134db565b8201868152602081018690528385604083013760009301604001928352509095945050505050565b8183823760009101908152919050565b600082516131888184602087016134db565b9190910192915050565b7f416363657373436f6e74726f6c3a206163636f756e74200000000000000000008152600083516131ca8160178501602088016134db565b7001034b99036b4b9b9b4b733903937b6329607d1b60179184019182015283516131fb8160288401602088016134db565b01602801949350505050565b6001600160a01b0383168152604060208201819052600090611088908301846130c5565b8481526001600160a01b03841660208201526060604082018190528101829052818360808301376000818301608090810191909152601f909201601f191601019392505050565b602081526000610d4e60208301846130c5565b6020808252818101527f434841494e5f434f4e4e4543544f525f524f4c45206973207265717569726564604082015260600190565b60208082526029908201527f45585452415f434f4e54524143545f5245474953545241525f524f4c45206973604082015268081c995c5d5a5c995960ba1b606082015260800190565b6020808252602e908201527f496e697469616c697a61626c653a20636f6e747261637420697320616c72656160408201526d191e481a5b9a5d1a585b1a5e995960921b606082015260800190565b60208082526024908201527f53636861696e20686173682063616e206e6f7420626520657175616c204d61696040820152631b9b995d60e21b606082015260800190565b60208082526024908201527f44657374696e6174696f6e20636861696e206973206e6f7420696e697469616c6040820152631a5e995960e21b606082015260800190565b60208082526024908201527f457874726120636f6e747261637420697320616c726561647920726567697374604082015263195c995960e21b606082015260800190565b6000808335601e1984360301811261343457600080fd5b8301803591506001600160401b0382111561344e57600080fd5b602001915036819003821315612c4857600080fd5b60008235605e1983360301811261318857600080fd5b6000821982111561348c5761348c6135c1565b500190565b6000826134a0576134a06135d7565b500490565b60008160001904831182151516156134bf576134bf6135c1565b500290565b6000828210156134d6576134d66135c1565b500390565b60005b838110156134f65781810151838201526020016134de565b83811115613505576000848401525b50505050565b60008161351a5761351a6135c1565b506000190190565b604081018181106001600160401b038211171561354157613541613619565b60405250565b60a081018181106001600160401b038211171561354157613541613619565b601f8201601f191681016001600160401b038111828210171561358b5761358b613619565b6040525050565b60006000198214156135a6576135a66135c1565b5060010190565b6000826135bc576135bc6135d7565b500690565b634e487b7160e01b600052601160045260246000fd5b634e487b7160e01b600052601260045260246000fd5b634e487b7160e01b600052603160045260246000fd5b634e487b7160e01b600052603260045260246000fd5b634e487b7160e01b600052604160045260246000fd5b600060033d11156136485760046000803e5060005160e01c5b90565b600060443d10156136595790565b6040516003193d81016004833e81513d6001600160401b03816024840111818411171561368857505050505090565b82850191508151818111156136a05750505050505090565b843d87010160208285010111156136ba5750505050505090565b6136c960208286010187613566565b509095945050505050565b6001600160a01b038116811461189257600080fdfe6155b5aac15ce9aa193c0527a6f43be0a36a7e2e7496c2b615c0e5f92284277330644e72e131a029b85045b68181585d97816a916871ca8d3c208c16d87cfd47992e0e3e7050db88ec37ec33505f46a9813ea5551fe17ef58dc201344bcbaf932785f35fe7d8743aa971942d8474737bb31895d396eff2cc688a481e0221e191a26469706673582212204fe3966b90cc3ea4c782806a5453eeecfa53f5df6851a2898dfaf870976202b164736f6c63430008060033",
  "linkReferences": {},
  "deployedLinkReferences": {}
}